{
  "transactions": [
    {
      "hash": "0x08d6a3fb3d9d976897184a8be0b5c62e44f6f8b8d1f8e2768f81deb1d5e42656",
      "transactionType": "CREATE",
      "contractName": "ProtocolSharedRevenueMinFeeMintModule",
      "contractAddress": "0xa0528a82fccbe1c871336d0fa09cf3acf0d3946a",
      "function": null,
      "arguments": [
        "0xA2574D9DdB6A325Ad2Be838Bd854228B80215148",
        "0x34A437A91415C36712B0D912c171c74595Be437d",
        "0x9E81eD8099dF82004D298144138C12AbB959DF1E",
        "0x532BbA5445e306cB83cF26Ef89842d4701330A45"
      ],
      "transaction": {
        "from": "0xed4ae5eb2a93658852343385a0b28a2b66a07697",
        "to": null,
        "gas": "0x2304fa",
        "value": "0x0",
        "input": "0x61010034620000ff57601f62001fe738819003918201601f19168301916001600160401b038311848410176200010457808492608094604052833981010312620000ff578062000053620000a8926200011a565b62000061602083016200011a565b6200007d606062000075604086016200011a565b94016200011a565b6001600160a01b0383811660805290931660a05260c05260e052620000a2336200012f565b6200012f565b604051611e6e9081620001798239608051816119e5015260a0518181816103780152610703015260c051818181610401015281816108e50152611250015260e051818181610be601528181610d5b015261166f0152f35b600080fd5b634e487b7160e01b600052604160045260246000fd5b51906001600160a01b0382168203620000ff57565b600180546001600160a01b039283166001600160a01b0319821681179092559091167f8be0079c531659141344cd1fd0a4f28419497f9722a3daafe3b4186f6b6457e0600080a356fe608080604052600436101561001357600080fd5b60003560e01c90816301ffc9a71461127f5750806303ee438c146102e4578063397a2a881461123a5780633f5038921461109a5780636039c39514610fb2578063681591c114610e395780636e276c9314610da85780636fb71661146108d5578063715018a61461088a5780638da5cb5b1461086157806391027b53146103a7578063b95ddb5214610362578063c4d66de814610318578063ce90d52e146102e4578063dabc737a146102b7578063e66214051461023d578063f2fde38b146101ae578063f8d7758c146101845763fcdd2347146100f057600080fd5b3461017f5761010061010a610104366114c5565b906118a3565b6040519060018060a01b03808251168352602082015160018060601b0380911660208501528160408401511660408501526060830151166060840152608082015116608083015261ffff60a08201511660a083015260c0810151151560c083015260e060018060481b039101511660e0820152f35b600080fd5b3461017f57602061019c610197366114f6565b61195e565b6040516001600160a01b039091168152f35b3461017f57602036600319011261017f576101c7611528565b6101cf611ba5565b6001600160a01b038116156101e9576101e790611bfd565b005b60405162461bcd60e51b815260206004820152602660248201527f4f776e61626c653a206e6577206f776e657220697320746865207a65726f206160448201526564647265737360d01b6064820152608490fd5b3461017f57604036600319011261017f57610256611528565b60243590610262611ba5565b811515806102a6575b61029457600380546001600160a01b0319166001600160a01b0392909216919091179055600455005b604051635435b28960e11b8152600490fd5b506001600160a01b0381161561026b565b3461017f57600036600319011261017f57604060018060a01b036003541660045482519182526020820152f35b3461017f57600036600319011261017f576103146103006113e3565b604051918291602083526020830190611485565b0390f35b3461017f57602036600319011261017f57610331611528565b6001546001600160a01b039081161580159190610357575b5061017f576101e790611bfd565b905081161582610349565b3461017f57600036600319011261017f576040517f00000000000000000000000000000000000000000000000000000000000000006001600160a01b03168152602090f35b3461017f57608036600319011261017f576044356001600160a01b0381160361017f576001600160401b0360643581811161017f573660238201121561017f57806004013582811161017f57810136602482011161017f577f00000000000000000000000000000000000000000000000000000000000000006001600160a01b0316330361084f578161012091031261017f576040519061044782611337565b6024810135906001600160a01b038216820361017f5781835261046c60448201611552565b80602085015261047e6064830161153e565b9283604086015261049160848401611552565b60608601526104a260a4840161153e565b9384608087015260c48401359061ffff8216820361017f578160a088015260e485013593841515850361017f5760c08801859052610104860135956001600160481b038716870361017f57610124610500918860e08c01520161153e565b610100890152604051988960e08101109060e08b0111176108395760e0890160409081526001600160a01b039485168a526001600160601b039190911660208a01529083169088015261ffff16606087015290151560808601526001600160481b039190911660a085015290811660c084015261010091909101511680610806575b5080516001600160a01b03161580806107ef575b81156107cb575b5080156107b8575b801561078f575b61077d5760408101516001600160a01b031690816106e4575b80516004356000908152602081815260408083206024358452825290912080546001600160a01b039093166001600160a01b03199384161781559083015160a093929161061b916001600160601b03169061199e565b604082810151600435600090815260208181528382206024358352905282902060018082018054861660001992891b9290920193841691909117905560c08501516002909101805460608701516080880151978901516001600160b01b0361ffff808c1b1994909916959096169490941791909116951690961b939093171692151560b01b60ff60b01b169290921760b89190911b6001600160b81b0319161790915551610314906106cc816113a5565b60008152604051918291602083526020830190611485565b604051633f8ecfd360e21b8152600481019290925260208260248160007f00000000000000000000000000000000000000000000000000000000000000006001600160a01b03165af19182156107715760a092610742575b506105c5565b6107639060203d60201161076a575b61075b81836113c0565b810190611986565b508261073c565b503d610751565b6040513d6000823e3d90fd5b6040516348be0eb360e01b8152600490fd5b5060a08101516001600160481b031680151590816107ae575b506105ac565b90504211826107a8565b5061271061ffff606083015116116105a5565b905015806107da575b8261059d565b5060408101516001600160a01b0316156107d4565b60408301516001600160a01b031615159150610596565b6004356000526006602052604060002060243560005260205260406000209060018060a01b031982541617905581610582565b634e487b7160e01b600052604160045260246000fd5b604051632fc56e1160e21b8152600490fd5b3461017f57600036600319011261017f576001546040516001600160a01b039091168152602090f35b3461017f57600036600319011261017f576108a3611ba5565b600180546001600160a01b031981169091556000906001600160a01b0316600080516020611e198339815191528280a3005b3461017f576108e3366114f6565b7f00000000000000000000000000000000000000000000000000000000000000006001600160a01b0316330361084f57803560005260006020526040600020602082013560005260205260018060a01b036040600020541615610d9a575b80356000526000602052604060002060208201356000526020526001604060002001805460a01c9060018060601b0391828114610d845760016109869101809261199e565b823560005260006020526040600020602084013560005260205260ff60026040600020015460b01c16610d4f575b823560005260006020526040600020602084013560005260205260026040600020015460b81c91833560005260006020526040600020602085013560005260205260406000205460a01c908115159283610d43575b505050610d31578015159081610d27575b50610d1557610a2c60a0820182611566565b15159050610aee57610ac2906001600160a01b03610a498261195e565b168135600052600060205260406000206020830135600052602052610abc61ffff60018060a01b036001604060002001541692610a958185610a8f6101008901896115e3565b90611a73565b612710610aac610aa36119ce565b909416836115af565b04918280610ad1575b50506119c1565b91611ac4565b6103146040516106cc816113a5565b610ae791610ae1608089016115cf565b87611c34565b8682610ab5565b6001600160a01b03610aff8261195e565b1690803560005260006020526040600020602082013560005260205260018060a01b036001604060002001541691610b408184610a8f6101008601866115e3565b610b70610b4b6119ce565b91906127109384610b6161ffff809616836115af565b04918280610cf85750506119c1565b90833560005260006020526040600020602085013560005260205260026040600020015460a01c169160009280610bb7575b5050610bb29391610abc916119c1565b610ac2565b82610bc4929394506115af565b0490610bd360a0840184611566565b80915015610ce2578083048015610ba2577f00000000000000000000000000000000000000000000000000000000000000006001600160a01b03166080860160005b848110610c2457505050610ba2565b610c3160a0890189611566565b8291921015610ccc57604051916331a9108f60e11b83528160051b01356004830152602082602481875afa8015610771578592600091610c89575b50600192610c8391610c7d866115cf565b8d611c34565b01610c15565b9250506020823d602011610cc4575b81610ca5602093836113c0565b8101031261017f57610c8385610cbc60019461159b565b915092610c6c565b3d9150610c98565b634e487b7160e01b600052603260045260246000fd5b634e487b7160e01b600052601260045260246000fd5b610d0e91610d0860808a016115cf565b8a611c34565b8782610ab5565b6040516304cd703960e51b8152600490fd5b9050421182610a1a565b604051635b21dfd360e11b8152600490fd5b16119050838080610a09565b610d7f833560408501357f0000000000000000000000000000000000000000000000000000000000000000611b21565b6109b4565b634e487b7160e01b600052601160045260246000fd5b610da38161163e565b610941565b3461017f57600036600319011261017f5760006060604051610dc981611353565b82815282602082015282604082015201526080604051610de881611353565b60055461ffff9081808216938481528160208201818560101c1681528160606040850194828860201c168652019560301c168552604051968752511660208601525116604084015251166060820152f35b3461017f5760208060031936011261017f57600435906001600160401b039081831161017f573660238401121561017f578260040135610e78816114db565b93610e8660405195866113c0565b818552366024838301011161017f578160009260248593018388013785010152610eae611ba5565b825191821161083957610ec26002546112fd565b601f8111610f6b575b5080601f8311600114610f0757508192600092610efc575b5050600019600383901b1c191660019190911b17600255005b015190508280610ee3565b90601f19831693600260005282600020926000905b868210610f535750508360019510610f3a575b505050811b01600255005b015160001960f88460031b161c19169055828080610f2f565b80600185968294968601518155019501930190610f1c565b600260005281600020601f840160051c810191838510610fa8575b601f0160051c01905b818110610f9c5750610ecb565b60008155600101610f8f565b9091508190610f86565b3461017f57608036600319011261017f57604051610fcf81611353565b61ffff90600435828116810361017f57815260243591808316830361017f576020820192835260443590808216820361017f576040830191825260643592818416840361017f5760608101938452611025611ba5565b6127108261105461104a61104083865116848b51169061188d565b838851169061188d565b828851169061188d565b160361029457511663ffff0000600554945160101b169161ffff60201b905160201b169261ffff60301b905160301b169360018060401b03191617171717600555600080f35b3461017f576101206110ab366114c5565b60006101006040516110bc81611337565b8281528260208201528260408201528260608201528260808201528260a08201528260c08201528260e082015201526110f581836118a3565b60009283526006602090815260408085209385529281529282902054815193820151828401516060840151608085015160a086015160c087015160e09097015197516001600160a01b03998a16999098968116976001600160481b039097169615159561ffff90921694928116936001600160601b039081169391909116911661117e89611337565b898952602089015260408801526060870152608086015260a085015260c084015260e083015261010082015260405191825260018060601b03602082015116602083015260018060a01b03604082015116604083015260018060601b03606082015116606083015260018060a01b03608082015116608083015261ffff60a08201511660a083015260c0810151151560c083015260018060481b0360e08201511660e083015261010060018060a01b0391015116610100820152f35b3461017f57600036600319011261017f576040517f00000000000000000000000000000000000000000000000000000000000000006001600160a01b03168152602090f35b3461017f57602036600319011261017f576001600160e01b0319906004358281169081900361017f57602092637f5ab69960e11b82149283156112ca575b5050506040519015158152f35b90919250838101906a4c454e535f4d4f44554c4560a81b8252600b81526112f08161138a565b51902016148280806112bd565b90600182811c9216801561132d575b602083101461131757565b634e487b7160e01b600052602260045260246000fd5b91607f169161130c565b61012081019081106001600160401b0382111761083957604052565b608081019081106001600160401b0382111761083957604052565b61010081019081106001600160401b0382111761083957604052565b604081019081106001600160401b0382111761083957604052565b602081019081106001600160401b0382111761083957604052565b601f909101601f19168101906001600160401b0382119082101761083957604052565b60405190600082600254916113f7836112fd565b8083526020936001908181169081156114655750600114611423575b5050611421925003836113c0565b565b90939150600260005281600020936000915b81831061144d57505061142193508201013880611413565b85548884018501529485019487945091830191611435565b91505061142194925060ff191682840152151560051b8201013880611413565b919082519283825260005b8481106114b1575050826000602080949584010152601f8019910116010190565b602081830181015184830182015201611490565b604090600319011261017f576004359060243590565b6001600160401b03811161083957601f01601f191660200190565b6003199060208183011261017f57600435916001600160401b03831161017f57826101209203011261017f5760040190565b600435906001600160a01b038216820361017f57565b35906001600160a01b038216820361017f57565b35906001600160601b038216820361017f57565b903590601e198136030182121561017f57018035906001600160401b03821161017f57602001918160051b3603831361017f57565b51906001600160a01b038216820361017f57565b81810292918115918404141715610d8457565b91908201809211610d8457565b356001600160a01b038116810361017f5790565b903590601e198136030182121561017f57018035906001600160401b03821161017f5760200191813603831361017f57565b9081606091031261017f576116298161153e565b9161163b60406020840135930161153e565b90565b90600454801561188857604080516331a9108f60e11b8152843560048201819052909490916001600160a01b0360207f000000000000000000000000000000000000000000000000000000000000000082168189602481845afa801561187d57600090611840575b60049697989950600554986127109961ffff96858c6116c78a8516866115af565b049582519b8c8092631d8cf42560e11b82525afa998a1561183557908c93929160009b6117f1575b509087899285848460101c1661170590876115af565b049d6000526006895280600020898d013560005289526000205416961c1661172c916115af565b04948315156000149961175b966117c5956114219c6117e0579061176191886003541661175b60808d016115cf565b90611c34565b6117948661177e6117766101008c018c6115e3565b810190611615565b91505016926004549060055460301c16906115af565b049080156117cf57906117b291866003541661175b60808b016115cf565b6080846003541696019561175b876115cf565b60035416916115cf565b506117da91926115c2565b906117b2565b506117eb91946115c2565b92611761565b91929350998682813d831161182e575b61180b81836113c0565b8101031261182b57508b9291876118228a9361159b565b9b9192506116ef565b80fd5b503d611801565b50513d6000823e3d90fd5b828a813d8311611876575b61185581836113c0565b8101031261182b575061186c60049697989961159b565b89989796506116a6565b503d61184b565b84513d6000823e3d90fd5b509050565b91909161ffff80809416911601918211610d8457565b60e0604092839283516118b58161136e565b600093818580935282602082015282878201528260608201528260808201528260a08201528260c08201520152825281602052828220908252602052209060028151926119018461136e565b80549260018060a01b0393848116865260a01c60208601526001820154908482169086015260a01c60608501520154908116608083015261ffff8160a01c1660a083015260ff8160b01c16151560c083015260b81c60e082015290565b803560009081526020818152604080832093820135835292905220546001600160a01b031690565b9081602091031261017f5751801515810361017f5790565b80546001600160a01b031660a09290921b6001600160a01b031916919091179055565b91908203918211610d8457565b604080516398f965d160e01b8152919080836004817f00000000000000000000000000000000000000000000000000000000000000006001600160a01b03165afa928315611835576000918294611a26575b50509190565b9080929450813d8311611a6c575b611a3e81836113c0565b81010312611a68576020611a518261159b565b9101519261ffff8416840361182b57503880611a20565b8280fd5b503d611a34565b611a8291939293810190611615565b50919091148015926001600160a01b0391611ab3575b505050611aa157565b6040516346308bd560e01b8152600490fd5b819293501691161415388080611a98565b9190823560005260006020526040600020602084013560005260205260018060a01b039081600260406000200154169183611b01575b5050505050565b611b106080611b1796016115cf565b9116611c34565b3880808080611afa565b91808214611ba0576040516347720ebb60e01b81526004810192909252602482015290602090829060449082906001600160a01b03165afa90811561077157600091611b82575b5015611b7057565b6040516322d9eef360e21b8152600490fd5b611b9a915060203d811161076a5761075b81836113c0565b38611b68565b505050565b6001546001600160a01b03163303611bb957565b606460405162461bcd60e51b815260206004820152602060248201527f4f776e61626c653a2063616c6c6572206973206e6f7420746865206f776e65726044820152fd5b600180546001600160a01b039283166001600160a01b031982168117909255909116600080516020611e19833981519152600080a3565b6040516323b872dd60e01b60208083019182526001600160a01b039485166024840152948416604483015260648083019690965294815292939260a081019290916001600160401b0384118385101761083957611cfb946000928392866040521693611c9f8661138a565b8786527f5361666545524332303a206c6f772d6c6576656c2063616c6c206661696c656460c0820152519082855af13d15611d77573d91611cdf836114db565b92611ced60405194856113c0565b83523d60008785013e611d7b565b80519081611d0857505050565b8280611d18938301019101611986565b15611d205750565b6084906040519062461bcd60e51b82526004820152602a60248201527f5361666545524332303a204552433230206f7065726174696f6e20646964206e6044820152691bdd081cdd58d8d9595960b21b6064820152fd5b6060915b91929015611ddd5750815115611d8f575090565b3b15611d985790565b60405162461bcd60e51b815260206004820152601d60248201527f416464726573733a2063616c6c20746f206e6f6e2d636f6e74726163740000006044820152606490fd5b825190915015611df05750805190602001fd5b60405162461bcd60e51b815260206004820152908190611e14906024830190611485565b0390fdfe8be0079c531659141344cd1fd0a4f28419497f9722a3daafe3b4186f6b6457e0a26469706673582212201d41272bc4076d09ea85aaeee7a7a2a76bc4ac9aa505fbd7b18d2e907540047b64736f6c63430008150033000000000000000000000000a2574d9ddb6a325ad2be838bd854228b8021514800000000000000000000000034a437a91415c36712b0d912c171c74595be437d0000000000000000000000009e81ed8099df82004d298144138c12abb959df1e000000000000000000000000532bba5445e306cb83cf26ef89842d4701330a45",
        "nonce": "0x87",
        "chainId": "0x13882",
        "accessList": null,
        "type": null
      },
      "additionalContracts": [],
      "isFixedGasLimit": false
    },
    {
      "hash": "0x887c4be7c6539b8265d5b6f5d1d5b219eff2b3c173f583a3f4d0ad99e56f8ebc",
      "transactionType": "CREATE",
      "contractName": "TransparentUpgradeableProxy",
      "contractAddress": "0x6d3671d37252d27f03efb01c1995a73162473571",
      "function": null,
      "arguments": [
        "0xa0528A82FccBe1C871336d0fa09CF3aCF0D3946A",
        "0xFBD6b26d7d6FaF3e3AccC77Aa645AeaB6c024d23",
        "0xc4d66de8000000000000000000000000532bba5445e306cb83cf26ef89842d4701330a45"
      ],
      "transaction": {
        "from": "0xed4ae5eb2a93658852343385a0b28a2b66a07697",
        "to": null,
        "gas": "0xb049b",
        "value": "0x0",
        "input": "0x60406080815262000bbc8038038062000018816200030b565b9283398101906060818303126200030657620000348162000347565b916020926200004584840162000347565b8584015190936001600160401b0391908282116200030657019280601f850112156200030657835193620000836200007d866200035c565b6200030b565b948086528786019288828401011162000306578288620000a4930162000378565b823b15620002ac577f360894a13ba1a3210667c828492db98dca3e2076cc3735a920a3ca505d382bbc80546001600160a01b03199081166001600160a01b0386811691821790935590959194600093909290917fbc7cd75a20ee27fd9adebab32041f755214dbc6bffa90cc0225b39da2e5c2d3b8580a2805115801590620002a4575b620001f5575b50505050507fb53127684a568b3173ae13b9f8a6016e243e63b6e8ee1178d6a717850b5d6103937f7e644d79422f17c01e4894b5f4f588d331ebfa28653d42ae832dc59e38c9798f86865493815196818616885216958684820152a18315620001a3575016179055516107659081620004578239f35b60849086519062461bcd60e51b82526004820152602660248201527f455243313936373a206e65772061646d696e20697320746865207a65726f206160448201526564647265737360d01b6064820152fd5b895194606086019081118682101762000290578a52602785527f416464726573733a206c6f772d6c6576656c2064656c65676174652063616c6c89860152660819985a5b195960ca1b8a860152516200027a9493929183918291845af4903d1562000286573d6200026a6200007d826200035c565b90815280938a3d92013e6200039d565b5038808080806200012d565b606092506200039d565b634e487b7160e01b85526041600452602485fd5b508362000127565b865162461bcd60e51b815260048101879052602d60248201527f455243313936373a206e657720696d706c656d656e746174696f6e206973206e60448201526c1bdd08184818dbdb9d1c9858dd609a1b6064820152608490fd5b600080fd5b6040519190601f01601f191682016001600160401b038111838210176200033157604052565b634e487b7160e01b600052604160045260246000fd5b51906001600160a01b03821682036200030657565b6001600160401b0381116200033157601f01601f191660200190565b60005b8381106200038c5750506000910152565b81810151838201526020016200037b565b91929015620004025750815115620003b3575090565b3b15620003bd5790565b60405162461bcd60e51b815260206004820152601d60248201527f416464726573733a2063616c6c20746f206e6f6e2d636f6e74726163740000006044820152606490fd5b825190915015620004165750805190602001fd5b6044604051809262461bcd60e51b82526020600483015262000448815180928160248601526020868601910162000378565b601f01601f19168101030190fdfe60806040526004361015610019575b366102e8575b6102e8565b6000803560e01c9081633659cfe61461006c575080634f1ef286146100675780635c60da1b146100625780638f2839701461005d5763f851a4400361000e576102a6565b6101c7565b610178565b6100dc565b346100be5760203660031901126100be576100856100c1565b6000805160206106d083398151915254336001600160a01b0390911603610014576100bb906100b26103c5565b90838252610429565b80f35b80fd5b600435906001600160a01b03821682036100d757565b600080fd5b60403660031901126100d7576100f06100c1565b6001600160401b0390602435908282116100d757366023830112156100d75781600401359283116100d75736602484840101116100d7576000805160206106d083398151915254336001600160a01b039091160361001457600060208480602461016461015f6101769961040e565b6103e9565b968288520183870137840101526104f9565b005b346100d75760003660031901126100d7576000805160206106d0833981519152546001600160a01b03903390821603610014576000805160206106f08339815191525460405191168152602090f35b346100d75760203660031901126100d7576101e06100c1565b6000805160206106d083398151915280549091906001600160a01b03903390821603610014577f7e644d79422f17c01e4894b5f4f588d331ebfa28653d42ae832dc59e38c9798f604084549281519481851686521693846020820152a18115610252576001600160a01b031916179055005b60405162461bcd60e51b815260206004820152602660248201527f455243313936373a206e65772061646d696e20697320746865207a65726f206160448201526564647265737360d01b6064820152608490fd5b346100d75760003660031901126100d7576000805160206106d083398151915280546001600160a01b0390339082160361001457905460405191168152602090f35b6000805160206106d0833981519152546001600160a01b039081163314610339576000805160206106f083398151915254166000808092368280378136915af43d82803e15610335573d90f35b3d90fd5b60405162461bcd60e51b815260206004820152604260248201527f5472616e73706172656e745570677261646561626c6550726f78793a2061646d60448201527f696e2063616e6e6f742066616c6c6261636b20746f2070726f78792074617267606482015261195d60f21b608482015260a490fd5b634e487b7160e01b600052604160045260246000fd5b60405190602082016001600160401b038111838210176103e457604052565b6103af565b6040519190601f01601f191682016001600160401b038111838210176103e457604052565b6001600160401b0381116103e457601f01601f191660200190565b803b1561049e576000805160206106f083398151915280546001600160a01b0319166001600160a01b038316908117909155600080516020610710833981519152600080a2815115801590610496575b610481575050565b6104939161048d610558565b916105b1565b50565b506000610479565b60405162461bcd60e51b815260206004820152602d60248201527f455243313936373a206e657720696d706c656d656e746174696f6e206973206e60448201526c1bdd08184818dbdb9d1c9858dd609a1b6064820152608490fd5b803b1561049e576000805160206106f083398151915280546001600160a01b0319166001600160a01b038316908117909155600080516020610710833981519152600080a281511580159061055057610481575050565b506001610479565b60405190606082016001600160401b038111838210176103e45760405260278252660819985a5b195960ca1b6040837f416464726573733a206c6f772d6c6576656c2064656c65676174652063616c6c60208201520152565b6000806105e69493602081519101845af43d156105e9573d916105d661015f8461040e565b9283523d6000602085013e61063d565b90565b60609161063d565b156105f857565b60405162461bcd60e51b815260206004820152601d60248201527f416464726573733a2063616c6c20746f206e6f6e2d636f6e74726163740000006044820152606490fd5b9192901561065d5750815115610651575090565b6105e6903b15156105f1565b8251909150156106705750805190602001fd5b6040519062461bcd60e51b82528160208060048301528251908160248401526000935b8285106106b6575050604492506000838284010152601f80199101168101030190fd5b848101820151868601604401529381019385935061069356feb53127684a568b3173ae13b9f8a6016e243e63b6e8ee1178d6a717850b5d6103360894a13ba1a3210667c828492db98dca3e2076cc3735a920a3ca505d382bbcbc7cd75a20ee27fd9adebab32041f755214dbc6bffa90cc0225b39da2e5c2d3ba264697066735822122062a5c74e81aa140564531cad239856d478f42fd6fca1633369db221f437fa14564736f6c63430008150033000000000000000000000000a0528a82fccbe1c871336d0fa09cf3acf0d3946a000000000000000000000000fbd6b26d7d6faf3e3accc77aa645aeab6c024d2300000000000000000000000000000000000000000000000000000000000000600000000000000000000000000000000000000000000000000000000000000024c4d66de8000000000000000000000000532bba5445e306cb83cf26ef89842d4701330a4500000000000000000000000000000000000000000000000000000000",
        "nonce": "0x88",
        "chainId": "0x13882",
        "accessList": null,
        "type": null
      },
      "additionalContracts": [],
      "isFixedGasLimit": false
    },
    {
      "hash": "0x79d714bc1e44ef67e99da0adbbac77054fd63ebb5e2f10df2c58a989e5def448",
      "transactionType": "CALL",
      "contractName": null,
      "contractAddress": "0x9e81ed8099df82004d298144138c12abb959df1e",
      "function": "registerErc20Currency(address)",
      "arguments": [
        "0x9F98f838E3db42830ef488a92c8ed9671268000e"
      ],
      "transaction": {
        "from": "0xed4ae5eb2a93658852343385a0b28a2b66a07697",
        "to": "0x9e81ed8099df82004d298144138c12abb959df1e",
        "gas": "0x169e3",
        "value": "0x0",
        "input": "0xacc331550000000000000000000000009f98f838e3db42830ef488a92c8ed9671268000e",
        "nonce": "0x89",
        "chainId": "0x13882",
        "accessList": null,
        "type": null
      },
      "additionalContracts": [],
      "isFixedGasLimit": false
    },
    {
      "hash": "0x31bdc75cc7c0406aa3b7d04a57cd1cdb00cb04629744f70e803a01cb18c115a2",
      "transactionType": "CALL",
      "contractName": null,
      "contractAddress": "0x34a437a91415c36712b0d912c171c74595be437d",
      "function": "registerCollectModule(address)",
      "arguments": [
        "0x6d3671d37252d27f03efb01C1995A73162473571"
      ],
      "transaction": {
        "from": "0xed4ae5eb2a93658852343385a0b28a2b66a07697",
        "to": "0x34a437a91415c36712b0d912c171c74595be437d",
        "gas": "0x17228",
        "value": "0x0",
        "input": "0x8e8b8c970000000000000000000000006d3671d37252d27f03efb01c1995a73162473571",
        "nonce": "0x8a",
        "chainId": "0x13882",
        "accessList": null,
        "type": null
      },
      "additionalContracts": [],
      "isFixedGasLimit": false
    },
    {
      "hash": "0xdaa195fe23a5670e9be00d02dce3fbefad99a66205254db4cff17fe48529e127",
      "transactionType": "CALL",
      "contractName": "TransparentUpgradeableProxy",
      "contractAddress": "0x6d3671d37252d27f03efb01c1995a73162473571",
      "function": null,
      "arguments": null,
      "transaction": {
        "from": "0x532bba5445e306cb83cf26ef89842d4701330a45",
        "to": "0x6d3671d37252d27f03efb01c1995a73162473571",
        "gas": "0x19942",
        "value": "0x0",
        "input": "0xe66214050000000000000000000000009f98f838e3db42830ef488a92c8ed9671268000e0000000000000000000000000000000000000000000000008ac7230489e80000",
        "nonce": "0x39",
        "chainId": "0x13882",
        "accessList": null,
        "type": null
      },
      "additionalContracts": [],
      "isFixedGasLimit": false
    },
    {
      "hash": "0x12751ab212889372a08de83e687b01676df1cf72eb1c947eebc7e2c1743d6605",
      "transactionType": "CALL",
      "contractName": "TransparentUpgradeableProxy",
      "contractAddress": "0x6d3671d37252d27f03efb01c1995a73162473571",
      "function": null,
      "arguments": null,
      "transaction": {
        "from": "0x532bba5445e306cb83cf26ef89842d4701330a45",
        "to": "0x6d3671d37252d27f03efb01c1995a73162473571",
        "gas": "0x123f1",
        "value": "0x0",
        "input": "0x6039c395000000000000000000000000000000000000000000000000000000000000138800000000000000000000000000000000000000000000000000000000000007d000000000000000000000000000000000000000000000000000000000000005dc00000000000000000000000000000000000000000000000000000000000005dc",
        "nonce": "0x3a",
        "chainId": "0x13882",
        "accessList": null,
        "type": null
      },
      "additionalContracts": [],
      "isFixedGasLimit": false
    }
  ],
  "receipts": [
    {
      "status": "0x1",
      "cumulativeGasUsed": "0x1af22b",
      "logs": [
        {
          "address": "0xa0528a82fccbe1c871336d0fa09cf3acf0d3946a",
          "topics": [
            "0x8be0079c531659141344cd1fd0a4f28419497f9722a3daafe3b4186f6b6457e0",
            "0x0000000000000000000000000000000000000000000000000000000000000000",
            "0x000000000000000000000000ed4ae5eb2a93658852343385a0b28a2b66a07697"
          ],
          "data": "0x",
          "blockHash": "0x41ac0d51e913499b2b7fa7a31f4828f397410aaaefc1df3b933bf18f63afc810",
          "blockNumber": "0x5ba39e",
          "transactionHash": "0x08d6a3fb3d9d976897184a8be0b5c62e44f6f8b8d1f8e2768f81deb1d5e42656",
          "transactionIndex": "0x0",
          "logIndex": "0x0",
          "removed": false
        },
        {
          "address": "0xa0528a82fccbe1c871336d0fa09cf3acf0d3946a",
          "topics": [
            "0x8be0079c531659141344cd1fd0a4f28419497f9722a3daafe3b4186f6b6457e0",
            "0x000000000000000000000000ed4ae5eb2a93658852343385a0b28a2b66a07697",
            "0x000000000000000000000000532bba5445e306cb83cf26ef89842d4701330a45"
          ],
          "data": "0x",
          "blockHash": "0x41ac0d51e913499b2b7fa7a31f4828f397410aaaefc1df3b933bf18f63afc810",
          "blockNumber": "0x5ba39e",
          "transactionHash": "0x08d6a3fb3d9d976897184a8be0b5c62e44f6f8b8d1f8e2768f81deb1d5e42656",
          "transactionIndex": "0x0",
          "logIndex": "0x1",
          "removed": false
        },
        {
          "address": "0x0000000000000000000000000000000000001010",
          "topics": [
            "0x4dfe1bbbcf077ddc3e01291eea2d5c70c2b422b415d95645b9adcfd678cb1d63",
            "0x0000000000000000000000000000000000000000000000000000000000001010",
            "0x000000000000000000000000ed4ae5eb2a93658852343385a0b28a2b66a07697",
            "0x0000000000000000000000006c095a53250dd250797ff915a716cca690ad8842"
          ],
          "data": "0x00000000000000000000000000000000000000000000000000faf4320d459ea80000000000000000000000000000000000000000000000005c786b0c36c8f18b000000000000000000000000000000000000000000000021d32d39ba54f16d810000000000000000000000000000000000000000000000005b7d76da298352e3000000000000000000000000000000000000000000000021d4282dec62370c29",
          "blockHash": "0x41ac0d51e913499b2b7fa7a31f4828f397410aaaefc1df3b933bf18f63afc810",
          "blockNumber": "0x5ba39e",
          "transactionHash": "0x08d6a3fb3d9d976897184a8be0b5c62e44f6f8b8d1f8e2768f81deb1d5e42656",
          "transactionIndex": "0x0",
          "logIndex": "0x2",
          "removed": false
        }
      ],
      "logsBloom": "0x00000000000000000000000000000000000000000000000000800000000000000000000000000010000000000000000000008000000000000000000000000000000000000000000000000000000000800001000000000000000100000000000000000000020000000000000000000800000000000000040080000000000000400000000000000000400000000000004000000000000000000000000000000800200000000000400008008000000000000000004000000000000000000000004000000000000000000001000000000000000004000000000000100000000020002020000000000000000000000000000000000000000000000000000000100000",
      "type": "0x2",
      "transactionHash": "0x08d6a3fb3d9d976897184a8be0b5c62e44f6f8b8d1f8e2768f81deb1d5e42656",
      "transactionIndex": "0x0",
      "blockHash": "0x41ac0d51e913499b2b7fa7a31f4828f397410aaaefc1df3b933bf18f63afc810",
      "blockNumber": "0x5ba39e",
      "gasUsed": "0x1af22b",
      "effectiveGasPrice": "0x9502f9007",
      "from": "0xed4ae5eb2a93658852343385a0b28a2b66a07697",
      "to": null,
      "contractAddress": "0xa0528a82fccbe1c871336d0fa09cf3acf0d3946a"
    },
    {
      "status": "0x1",
      "cumulativeGasUsed": "0x87a7b",
      "logs": [
        {
          "address": "0x6d3671d37252d27f03efb01c1995a73162473571",
          "topics": [
            "0xbc7cd75a20ee27fd9adebab32041f755214dbc6bffa90cc0225b39da2e5c2d3b",
            "0x000000000000000000000000a0528a82fccbe1c871336d0fa09cf3acf0d3946a"
          ],
          "data": "0x",
          "blockHash": "0xda6f874f7e5c883b221840fbaa101cf0a944df511d079bf9a3eb80430702e20a",
          "blockNumber": "0x5ba3a1",
          "transactionHash": "0x887c4be7c6539b8265d5b6f5d1d5b219eff2b3c173f583a3f4d0ad99e56f8ebc",
          "transactionIndex": "0x0",
          "logIndex": "0x0",
          "removed": false
        },
        {
          "address": "0x6d3671d37252d27f03efb01c1995a73162473571",
          "topics": [
            "0x8be0079c531659141344cd1fd0a4f28419497f9722a3daafe3b4186f6b6457e0",
            "0x0000000000000000000000000000000000000000000000000000000000000000",
            "0x000000000000000000000000532bba5445e306cb83cf26ef89842d4701330a45"
          ],
          "data": "0x",
          "blockHash": "0xda6f874f7e5c883b221840fbaa101cf0a944df511d079bf9a3eb80430702e20a",
          "blockNumber": "0x5ba3a1",
          "transactionHash": "0x887c4be7c6539b8265d5b6f5d1d5b219eff2b3c173f583a3f4d0ad99e56f8ebc",
          "transactionIndex": "0x0",
          "logIndex": "0x1",
          "removed": false
        },
        {
          "address": "0x6d3671d37252d27f03efb01c1995a73162473571",
          "topics": [
            "0x7e644d79422f17c01e4894b5f4f588d331ebfa28653d42ae832dc59e38c9798f"
          ],
          "data": "0x0000000000000000000000000000000000000000000000000000000000000000000000000000000000000000fbd6b26d7d6faf3e3accc77aa645aeab6c024d23",
          "blockHash": "0xda6f874f7e5c883b221840fbaa101cf0a944df511d079bf9a3eb80430702e20a",
          "blockNumber": "0x5ba3a1",
          "transactionHash": "0x887c4be7c6539b8265d5b6f5d1d5b219eff2b3c173f583a3f4d0ad99e56f8ebc",
          "transactionIndex": "0x0",
          "logIndex": "0x2",
          "removed": false
        },
        {
          "address": "0x0000000000000000000000000000000000001010",
          "topics": [
            "0x4dfe1bbbcf077ddc3e01291eea2d5c70c2b422b415d95645b9adcfd678cb1d63",
            "0x0000000000000000000000000000000000000000000000000000000000001010",
            "0x000000000000000000000000ed4ae5eb2a93658852343385a0b28a2b66a07697",
            "0x000000000000000000000000915a2284d28bd93de7d6f31173b981204bb666e6"
          ],
          "data": "0x000000000000000000000000000000000000000000000000004ef62cb1365c280000000000000000000000000000000000000000000000005b7d76da27ef225e00000000000000000000000000000000000000000000004ba219cf39ac16b42d0000000000000000000000000000000000000000000000005b2e80ad76b8c63600000000000000000000000000000000000000000000004ba268c5665d4d1055",
          "blockHash": "0xda6f874f7e5c883b221840fbaa101cf0a944df511d079bf9a3eb80430702e20a",
          "blockNumber": "0x5ba3a1",
          "transactionHash": "0x887c4be7c6539b8265d5b6f5d1d5b219eff2b3c173f583a3f4d0ad99e56f8ebc",
          "transactionIndex": "0x0",
          "logIndex": "0x3",
          "removed": false
        }
      ],
      "logsBloom": "0x00000000000000000010000000000000400000000000000000800000000000000000000002000010000000000000000000008000000000000000000000000000000001000000000000000000000002800001000000000000000100000000000000000000020000000000000000000800000000800000000080000000000000400000000000000000000000400000004000000000000000000000000000800000200000000000400008000000000000000000004000000000000080000000004000000020000000000001000000000000000002000400000000100000000020002000000000000000000000000004000000000000400000000000000000101000",
      "type": "0x2",
      "transactionHash": "0x887c4be7c6539b8265d5b6f5d1d5b219eff2b3c173f583a3f4d0ad99e56f8ebc",
      "transactionIndex": "0x0",
      "blockHash": "0xda6f874f7e5c883b221840fbaa101cf0a944df511d079bf9a3eb80430702e20a",
      "blockNumber": "0x5ba3a1",
      "gasUsed": "0x87a7b",
      "effectiveGasPrice": "0x9502f9007",
      "from": "0xed4ae5eb2a93658852343385a0b28a2b66a07697",
      "to": null,
      "contractAddress": "0x6d3671d37252d27f03efb01c1995a73162473571"
    },
    {
      "status": "0x1",
      "cumulativeGasUsed": "0x10600",
      "logs": [
        {
          "address": "0x9e81ed8099df82004d298144138c12abb959df1e",
          "topics": [
            "0xd5149e9e0f36d4466fc875166f5e6650d9eb26d6326e05838e68351c58d9738c",
            "0x0000000000000000000000009f98f838e3db42830ef488a92c8ed9671268000e"
          ],
          "data": "0x000000000000000000000000000000000000000000000000000000000000008000000000000000000000000000000000000000000000000000000000000000c00000000000000000000000000000000000000000000000000000000000000012000000000000000000000000000000000000000000000000000000006620e03c0000000000000000000000000000000000000000000000000000000000000006426f6e73616900000000000000000000000000000000000000000000000000000000000000000000000000000000000000000000000000000000000000000006424f4e5341490000000000000000000000000000000000000000000000000000",
          "blockHash": "0xce25bdb1fa842fe5cd6180261a17006ab78ca6fcc2b2dcabb098c9caf3df4ad5",
          "blockNumber": "0x5ba3a4",
          "transactionHash": "0x79d714bc1e44ef67e99da0adbbac77054fd63ebb5e2f10df2c58a989e5def448",
          "transactionIndex": "0x0",
          "logIndex": "0x0",
          "removed": false
        },
        {
          "address": "0x0000000000000000000000000000000000001010",
          "topics": [
            "0x4dfe1bbbcf077ddc3e01291eea2d5c70c2b422b415d95645b9adcfd678cb1d63",
            "0x0000000000000000000000000000000000000000000000000000000000001010",
            "0x000000000000000000000000ed4ae5eb2a93658852343385a0b28a2b66a07697",
            "0x000000000000000000000000915a2284d28bd93de7d6f31173b981204bb666e6"
          ],
          "data": "0x00000000000000000000000000000000000000000000000000098810ad57d0000000000000000000000000000000000000000000000000005b2e80ad7639990100000000000000000000000000000000000000000000004ba297ec211fc04e120000000000000000000000000000000000000000000000005b24f89cc8e1c90100000000000000000000000000000000000000000000004ba2a17431cd181e12",
          "blockHash": "0xce25bdb1fa842fe5cd6180261a17006ab78ca6fcc2b2dcabb098c9caf3df4ad5",
          "blockNumber": "0x5ba3a4",
          "transactionHash": "0x79d714bc1e44ef67e99da0adbbac77054fd63ebb5e2f10df2c58a989e5def448",
          "transactionIndex": "0x0",
          "logIndex": "0x1",
          "removed": false
        }
      ],
      "logsBloom": "0x00000000000000000010000000000000000000000000000020000000000000000000000000000000000000000008000000008000000000001000000000000000000000000000000000000000000000800040000000000000000100000000000000000080000000000000000000000000000000000000000080000000000000000000000000000000000000000000004000000000000000000000000000000000200000000000000008000000000000000002004000000000000000000000004000000000000000000007000000000000000002000000000000100000000000000000000000200000000000000000000000000000400000000000000000100000",
      "type": "0x2",
      "transactionHash": "0x79d714bc1e44ef67e99da0adbbac77054fd63ebb5e2f10df2c58a989e5def448",
      "transactionIndex": "0x0",
      "blockHash": "0xce25bdb1fa842fe5cd6180261a17006ab78ca6fcc2b2dcabb098c9caf3df4ad5",
      "blockNumber": "0x5ba3a4",
      "gasUsed": "0x10600",
      "effectiveGasPrice": "0x9502f9007",
      "from": "0xed4ae5eb2a93658852343385a0b28a2b66a07697",
      "to": "0x9e81ed8099df82004d298144138c12abb959df1e",
      "contractAddress": null
    },
    {
      "status": "0x1",
      "cumulativeGasUsed": "0x10bfe",
      "logs": [
        {
          "address": "0x34a437a91415c36712b0d912c171c74595be437d",
          "topics": [
            "0xf6b57d3a49fa5be1fc25346ee0b64048a6a4734e50280e64080e3de8dca50267"
          ],
          "data": "0x0000000000000000000000006d3671d37252d27f03efb01c1995a731624735710000000000000000000000000000000000000000000000000000000000000060000000000000000000000000000000000000000000000000000000006620e0440000000000000000000000000000000000000000000000000000000000000000",
          "blockHash": "0xfbb8fa3ab4f6d83aa401e640284f054cd3bd5f02c3064e00d2915ccb87ab741e",
          "blockNumber": "0x5ba3a8",
          "transactionHash": "0x31bdc75cc7c0406aa3b7d04a57cd1cdb00cb04629744f70e803a01cb18c115a2",
          "transactionIndex": "0x0",
          "logIndex": "0x0",
          "removed": false
        },
        {
          "address": "0x0000000000000000000000000000000000001010",
          "topics": [
            "0x4dfe1bbbcf077ddc3e01291eea2d5c70c2b422b415d95645b9adcfd678cb1d63",
            "0x0000000000000000000000000000000000000000000000000000000000001010",
            "0x000000000000000000000000ed4ae5eb2a93658852343385a0b28a2b66a07697",
            "0x000000000000000000000000915a2284d28bd93de7d6f31173b981204bb666e6"
          ],
          "data": "0x0000000000000000000000000000000000000000000000000009bfdf2a5880100000000000000000000000000000000000000000000000005b24f89cc8d26f0100000000000000000000000000000000000000000000004ba2c21cef81f58a140000000000000000000000000000000000000000000000005b1b38bd9e79eef100000000000000000000000000000000000000000000004ba2cbdcceac4e0a24",
          "blockHash": "0xfbb8fa3ab4f6d83aa401e640284f054cd3bd5f02c3064e00d2915ccb87ab741e",
          "blockNumber": "0x5ba3a8",
          "transactionHash": "0x31bdc75cc7c0406aa3b7d04a57cd1cdb00cb04629744f70e803a01cb18c115a2",
          "transactionIndex": "0x0",
          "logIndex": "0x1",
          "removed": false
        }
      ],
      "logsBloom": "0x00000000000000000010000000000000000000000000000000000000000000000000000000000000000000000000000000008000000000000000000000000000000000020000000000000000000000800000000000000000000100004000000000000000000000000100000000000000000000000000000080000000000008000000000000000000000000000000004000000000000000000000000000000000200000000000000008000000000000000000004000000000000000000000004000000000000000000001000000000000000002000000000000100000000000000000000000000000000000000000000000000000400002000000000000100000",
      "type": "0x2",
      "transactionHash": "0x31bdc75cc7c0406aa3b7d04a57cd1cdb00cb04629744f70e803a01cb18c115a2",
      "transactionIndex": "0x0",
      "blockHash": "0xfbb8fa3ab4f6d83aa401e640284f054cd3bd5f02c3064e00d2915ccb87ab741e",
      "blockNumber": "0x5ba3a8",
      "gasUsed": "0x10bfe",
      "effectiveGasPrice": "0x9502f9007",
      "from": "0xed4ae5eb2a93658852343385a0b28a2b66a07697",
      "to": "0x34a437a91415c36712b0d912c171c74595be437d",
      "contractAddress": null
    },
    {
      "status": "0x1",
      "cumulativeGasUsed": "0x1284d",
      "logs": [
        {
          "address": "0x0000000000000000000000000000000000001010",
          "topics": [
            "0x4dfe1bbbcf077ddc3e01291eea2d5c70c2b422b415d95645b9adcfd678cb1d63",
            "0x0000000000000000000000000000000000000000000000000000000000001010",
            "0x000000000000000000000000532bba5445e306cb83cf26ef89842d4701330a45",
            "0x000000000000000000000000915a2284d28bd93de7d6f31173b981204bb666e6"
          ],
          "data": "0x000000000000000000000000000000000000000000000000000ac7841cc50d980000000000000000000000000000000000000000000000008aa0f1e8dcc33e3400000000000000000000000000000000000000000000004ba32fa50dbbc917800000000000000000000000000000000000000000000000008a962a64bffe309c00000000000000000000000000000000000000000000004ba33a6c91d88e2518",
          "blockHash": "0x67a500133de4d06f14f2c7ad570f6594d7858d8907e62b55d47a15c87cc0036e",
          "blockNumber": "0x5ba3ab",
          "transactionHash": "0xdaa195fe23a5670e9be00d02dce3fbefad99a66205254db4cff17fe48529e127",
          "transactionIndex": "0x0",
          "logIndex": "0x0",
          "removed": false
        }
      ],
      "logsBloom": "0x00000000000000000010000000000000000000000000000000000000000000000000000000000010000000000000000000008000000000000000000000000000000000000000000000000000000000800000000000000000000100000000000000000000000000000000000000000000000000000000000080000000000000000000000000000000000000000000000000000000000000000000000000000000200000000000400000000000000000000000000000000000000000000000004000000000000000000001000000000000000002000000000000100000000000002000000000000000000000000000000000000000400000000000000000100000",
      "type": "0x2",
      "transactionHash": "0xdaa195fe23a5670e9be00d02dce3fbefad99a66205254db4cff17fe48529e127",
      "transactionIndex": "0x0",
      "blockHash": "0x67a500133de4d06f14f2c7ad570f6594d7858d8907e62b55d47a15c87cc0036e",
      "blockNumber": "0x5ba3ab",
      "gasUsed": "0x1284d",
      "effectiveGasPrice": "0x9502f9007",
      "from": "0x532bba5445e306cb83cf26ef89842d4701330a45",
      "to": "0x6d3671d37252d27f03efb01c1995a73162473571",
      "contractAddress": null
    },
    {
      "status": "0x1",
      "cumulativeGasUsed": "0xd35d",
      "logs": [
        {
          "address": "0x0000000000000000000000000000000000001010",
          "topics": [
            "0x4dfe1bbbcf077ddc3e01291eea2d5c70c2b422b415d95645b9adcfd678cb1d63",
            "0x0000000000000000000000000000000000000000000000000000000000001010",
            "0x000000000000000000000000532bba5445e306cb83cf26ef89842d4701330a45",
            "0x000000000000000000000000915a2284d28bd93de7d6f31173b981204bb666e6"
          ],
          "data": "0x0000000000000000000000000000000000000000000000000007b07954f0b5180000000000000000000000000000000000000000000000008a962a64bfecd41900000000000000000000000000000000000000000000004ba36929b5b44c75910000000000000000000000000000000000000000000000008a8e79eb6afc1f0100000000000000000000000000000000000000000000004ba370da2f093d2aa9",
          "blockHash": "0xa9aef4ccee75261e71c7abbf438cefaef97d2a2a996208621a45a08b3eb1993d",
          "blockNumber": "0x5ba3af",
          "transactionHash": "0x12751ab212889372a08de83e687b01676df1cf72eb1c947eebc7e2c1743d6605",
          "transactionIndex": "0x0",
          "logIndex": "0x0",
          "removed": false
        }
      ],
      "logsBloom": "0x00000000000000000010000000000000000000000000000000000000000000000000000000000010000000000000000000008000000000000000000000000000000000000000000000000000000000800000000000000000000100000000000000000000000000000000000000000000000000000000000080000000000000000000000000000000000000000000000000000000000000000000000000000000200000000000400000000000000000000000000000000000000000000000004000000000000000000001000000000000000002000000000000100000000000002000000000000000000000000000000000000000400000000000000000100000",
      "type": "0x2",
      "transactionHash": "0x12751ab212889372a08de83e687b01676df1cf72eb1c947eebc7e2c1743d6605",
      "transactionIndex": "0x0",
      "blockHash": "0xa9aef4ccee75261e71c7abbf438cefaef97d2a2a996208621a45a08b3eb1993d",
      "blockNumber": "0x5ba3af",
      "gasUsed": "0xd35d",
      "effectiveGasPrice": "0x9502f9007",
      "from": "0x532bba5445e306cb83cf26ef89842d4701330a45",
      "to": "0x6d3671d37252d27f03efb01c1995a73162473571",
      "contractAddress": null
    }
  ],
  "libraries": [],
  "pending": [],
  "returns": {},
  "timestamp": 1713430613,
  "chain": 80002,
  "commit": "4369781"
}