{
  "transactions": [
    {
      "hash": "0x2aa2dfb5468e5a50446fadc2f5e33a9ac1702ea51b7a7e2e43cd20065371928f",
      "transactionType": "CREATE",
      "contractName": "ProtocolSharedRevenueMinFeeMintModule",
      "contractAddress": "0x7e34ec095a1a8ada535d90bb3cbabd8740fe5a44",
      "function": null,
      "arguments": [
        "0xA2574D9DdB6A325Ad2Be838Bd854228B80215148",
        "0x34A437A91415C36712B0D912c171c74595Be437d",
        "0x9E81eD8099dF82004D298144138C12AbB959DF1E",
        "0x532BbA5445e306cB83cF26Ef89842d4701330A45"
      ],
      "transaction": {
        "from": "0xed4ae5eb2a93658852343385a0b28a2b66a07697",
        "gas": "0x29a530",
        "value": "0x0",
        "input": "0x6101006040523480156200001257600080fd5b5060405162002620380380620026208339810160408190526200003591620000e7565b6001600160a01b03848116608081905283821660a05290841660c05260e0528080620000613362000078565b6200006c8162000078565b50505050505062000144565b600180546001600160a01b038381166001600160a01b0319831681179093556040519116919082907f8be0079c531659141344cd1fd0a4f28419497f9722a3daafe3b4186f6b6457e090600090a35050565b80516001600160a01b0381168114620000e257600080fd5b919050565b60008060008060808587031215620000fe57600080fd5b6200010985620000ca565b93506200011960208601620000ca565b92506200012960408601620000ca565b91506200013960608601620000ca565b905092959194509250565b60805160a05160c05160e051612478620001a860003960008181610d0001528181610da30152818161106901526116080152600081816101380152818161064a0152610739015260008181610263015261171f015260006114a401526124786000f3fe608060405234801561001057600080fd5b50600436106100f15760003560e01c806301ffc9a7146100f657806303ee438c1461011e578063397a2a88146101335780633f503892146101675780636039c39514610187578063681591c11461019c5780636e276c93146101af5780636fb7166114610228578063715018a61461023b5780638da5cb5b1461024357806391027b531461024b578063b95ddb521461025e578063c4d66de814610285578063ce90d52e14610298578063dabc737a146102a0578063e6621405146102d6578063f2fde38b146102e9578063f8d7758c146102fc578063fcdd23471461030f575b600080fd5b610109610104366004611a86565b61032f565b60405190151581526020015b60405180910390f35b610126610394565b6040516101159190611b07565b61015a7f000000000000000000000000000000000000000000000000000000000000000081565b6040516101159190611b27565b61017a610175366004611b3b565b610422565b6040516101159190611b5d565b61019a610195366004611c55565b610528565b005b61019a6101aa366004611cd9565b610625565b61021b604080516080810182526000808252602082018190529181018290526060810191909152506040805160808101825260055461ffff808216835262010000820481166020840152600160201b8204811693830193909352600160301b9004909116606082015290565b6040516101159190611db7565b610126610236366004611dc5565b61063d565b61019a610709565b61015a61071d565b610126610259366004611e20565b61072c565b61015a7f000000000000000000000000000000000000000000000000000000000000000081565b61019a610293366004611eb5565b610982565b6101266109bf565b6102b76003546004546001600160a01b0390911691565b604080516001600160a01b039093168352602083019190915201610115565b61019a6102e4366004611ed2565b610a51565b61019a6102f7366004611eb5565b610af5565b61015a61030a366004611dc5565b610b67565b61032261031d366004611b3b565b610b8f565b6040516101159190611efe565b6000637f5ab69960e11b6001600160e01b03198316148061038e5750604080516a4c454e535f4d4f44554c4560a81b6020808301919091528251600b818403018152602b90920190925280519101206001600160e01b03198381169116145b92915050565b600280546103a190611f9c565b80601f01602080910402602001604051908101604052809291908181526020018280546103cd90611f9c565b801561041a5780601f106103ef5761010080835404028352916020019161041a565b820191906000526020600020905b8154815290600101906020018083116103fd57829003601f168201915b505050505081565b6040805161012081018252600080825260208201819052918101829052606081018290526080810182905260a0810182905260c0810182905260e081018290526101008101829052906104758484610b8f565b60008581526006602090815260408083208784528252918290205482516101208101845284516001600160a01b039081168252838601516001600160601b0390811694830194909452848601518116948201949094526060808601519093169281019290925260808085015184169083015260a08085015161ffff169083015260c08085015115159083015260e0938401516001600160481b031693820193909352911661010082015291505092915050565b610530610c7b565b606081015160408201516020830151835161271093929161055091611fec565b61055a9190611fec565b6105649190611fec565b61ffff161461058657604051635435b28960e11b815260040160405180910390fd5b8051600580546020840151604080860151606087015161ffff908116600160301b0261ffff60301b19928216600160201b029290921663ffffffff60201b19948216620100000263ffffffff199096169190971617939093179190911693909317179055517fc563d89fbb43c6d8cdbe70cfdbfb3176375e73c6259bcf495f5182cd275ecba39061061a9083904290612007565b60405180910390a150565b61062d610c7b565b60026106398282612068565b5050565b6060336001600160a01b037f0000000000000000000000000000000000000000000000000000000000000000161461068857604051632fc56e1160e21b815260040160405180910390fd5b81356000908152602081815260408083208286013584529091528120546001600160a01b031690036106bd576106bd82610cda565b6106c682610fd2565b6106d360a0830183612127565b90506000036106ea576106e582611140565b6106f3565b6106f382611207565b506040805160208101909152600081525b919050565b610711610c7b565b61071b60006112c5565b565b6001546001600160a01b031690565b6060336001600160a01b037f0000000000000000000000000000000000000000000000000000000000000000161461077757604051632fc56e1160e21b815260040160405180910390fd5b6000610785838501856121be565b905060006040518060e0016040528083600001516001600160a01b0316815260200183602001516001600160601b0316815260200183604001516001600160a01b03168152602001836080015161ffff1681526020018360a00151151581526020018360c001516001600160481b0316815260200183606001516001600160a01b0316815250905060006001600160a01b03168260e001516001600160a01b0316146108675760e082015160008981526006602090815260408083208b8452909152902080546001600160a01b0319166001600160a01b039092169190911790555b61087081611317565b80516000898152602081815260408083208b8452825291829020908401516001600160601b0316600160a01b9081026001600160a01b03948516178255918401516001820180549185166001600160a01b031990921691909117905560c0840151600290910180546060860151608087015160a08801516001600160481b0316600160b81b026001600160b81b03911515600160b01b02919091166001600160b01b0361ffff9093169096026001600160b01b0319909316949096169390931717919091169190911791909117905584848080601f016020809104026020016040519081016040528093929190818152602001838380828437600092019190915250929b9a5050505050505050505050565b600061098c61071d565b6001600160a01b03161415806109a957506001600160a01b038116155b156109b357600080fd5b6109bc816112c5565b50565b6060600280546109ce90611f9c565b80601f01602080910402602001604051908101604052809291908181526020018280546109fa90611f9c565b8015610a475780601f10610a1c57610100808354040283529160200191610a47565b820191906000526020600020905b815481529060010190602001808311610a2a57829003601f168201915b5050505050905090565b610a59610c7b565b600081118015610a7057506001600160a01b038216155b15610a8e57604051635435b28960e11b815260040160405180910390fd5b600380546001600160a01b0319166001600160a01b0384169081179091556004829055604080519182526020820183905242908201527f0189ab00278bb0747b4d6f5b2e2b90c9bef3cc7a067b1737f15b4c90ab5a258f9060600160405180910390a15050565b610afd610c7b565b6001600160a01b0381166109b35760405162461bcd60e51b815260206004820152602660248201527f4f776e61626c653a206e6577206f776e657220697320746865207a65726f206160448201526564647265737360d01b60648201526084015b60405180910390fd5b803560009081526020818152604080832093820135835292905220546001600160a01b031690565b6040805161010081018252600080825260208201819052918101829052606081018290526080810182905260a0810182905260c0810182905260e0810191909152506000918252602082815260408084209284529181529181902081516101008101835281546001600160a01b038082168352600160a01b918290046001600160601b0390811696840196909652600184015480821695840195909552938190049094166060820152600290910154918216608082015291810461ffff1660a0830152600160b01b810460ff16151560c0830152600160b81b90046001600160481b031660e082015290565b33610c8461071d565b6001600160a01b03161461071b5760405162461bcd60e51b815260206004820181905260248201527f4f776e61626c653a2063616c6c6572206973206e6f7420746865206f776e65726044820152606401610b5e565b600454600003610ce75750565b6040516331a9108f60e11b8152813560048201526000907f00000000000000000000000000000000000000000000000000000000000000006001600160a01b031690636352211e90602401602060405180830381865afa158015610d4f573d6000803e3d6000fd5b505050506040513d601f19601f82011682018060405250810190610d739190612287565b60055460045491925060009161271091610d939161ffff909116906122a4565b610d9d91906122bb565b905060007f00000000000000000000000000000000000000000000000000000000000000006001600160a01b0316633b19e84a6040518163ffffffff1660e01b8152600401602060405180830381865afa158015610dff573d6000803e3d6000fd5b505050506040513d601f19601f82011682018060405250810190610e239190612287565b60055460045491925060009161271091610e48916201000090910461ffff16906122a4565b610e5291906122bb565b85356000908152600660209081526040808320828a013584529091528120546005546004549394506001600160a01b039091169261271091610ea091600160201b90910461ffff16906122a4565b610eaa91906122bb565b90506001600160a01b03821615610ee757610ee2610ece60a0890160808a01611eb5565b6003546001600160a01b03169084846113d6565b610ef4565b610ef181866122dd565b94505b6000610f046101008901896122f0565b810190610f119190612336565b600554600454919450600093506127109250610f3991600160301b90910461ffff16906122a4565b610f4391906122bb565b90506001600160a01b03821615610f6c57610f67610ece60a08b0160808c01611eb5565b610f79565b610f7681886122dd565b96505b610fa0610f8c60a08b0160808c01611eb5565b6003546001600160a01b0316908a8a6113d6565b610fc7610fb360a08b0160808c01611eb5565b6003546001600160a01b03169088886113d6565b505050505050505050565b80356000908152602081815260408083208285013584529091528120600101805460149061100f90600160a01b90046001600160601b0316612378565b82546001600160601b038083166101009490940a9384029302191691909117909155823560009081526020818152604080832082870135845290915290206002015490915060ff600160b01b9091041615611094576110947f000000000000000000000000000000000000000000000000000000000000000060408401358435611430565b8135600090815260208181526040808320828601358452909152902060028101549054600160b81b9091046001600160481b031690600160a01b90046001600160601b031680158015906110f0575080836001600160601b0316115b1561110e57604051635b21dfd360e11b815260040160405180910390fd5b811580159061111c57508142115b1561113a576040516304cd703960e51b815260040160405180910390fd5b50505050565b600061114b82610b67565b82356000908152602081815260408083208287013584529091529020600101546001600160a01b0391821692501661119161118a6101008501856122f0565b838561144c565b60008061119c61149f565b909250905060006127106111b461ffff8416876122a4565b6111be91906122bb565b905080156111eb576111eb6111d960a0880160808901611eb5565b6001600160a01b0386169085846113d6565b6111ff86856111fa84896123a6565b61152b565b505050505050565b600061121282610b67565b82356000908152602081815260408083208287013584529091529020600101546001600160a01b0391821692501661125161118a6101008501856122f0565b60008061125c61149f565b9092509050600061271061127461ffff8416876122a4565b61127e91906122bb565b90508015611299576112996111d960a0880160808901611eb5565b60006112af87866112aa858a6123a6565b61157f565b90506112bc87868361152b565b50505050505050565b600180546001600160a01b038381166001600160a01b0319831681179093556040519116919082907f8be0079c531659141344cd1fd0a4f28419497f9722a3daafe3b4186f6b6457e090600090a35050565b80516001600160a01b031615801561133b575060408101516001600160a01b031615155b80611365575080516001600160a01b031615801590611365575060408101516001600160a01b0316155b8061137d575061271061ffff16816060015161ffff16115b806113ab575060a08101516001600160481b0316158015906113ab5750428160a001516001600160481b0316105b156113c9576040516348be0eb360e01b815260040160405180910390fd5b6109bc81604001516116f9565b604080516001600160a01b0385811660248301528416604482015260648082018490528251808303909101815260849091019091526020810180516001600160e01b03166323b872dd60e01b17905261113a908590611797565b80820361143c57505050565b611447838383611869565b505050565b60008061145b85870187612336565b509150915082811415806114815750836001600160a01b0316826001600160a01b031614155b156111ff576040516346308bd560e01b815260040160405180910390fd5b6000807f00000000000000000000000000000000000000000000000000000000000000006001600160a01b03166398f965d16040518163ffffffff1660e01b81526004016040805180830381865afa1580156114ff573d6000803e3d6000fd5b505050506040513d601f19601f8201168201806040525081019061152391906123b9565b915091509091565b82356000908152602081815260408083208287013584529091529020600201546001600160a01b0316811561113a5761113a61156d60a0860160808701611eb5565b6001600160a01b0385169083856113d6565b8235600090815260208181526040808320828701358452909152812060020154600160a01b900461ffff168181156116e5576127106115be83866122a4565b6115c891906122bb565b905060006115d960a0880188612127565b9150600090506115e982846122bb565b905080156116e25760005b828110156116e05760006001600160a01b037f000000000000000000000000000000000000000000000000000000000000000016636352211e61163a60a08d018d612127565b8581811061164a5761164a6123f3565b905060200201356040518263ffffffff1660e01b815260040161166f91815260200190565b602060405180830381865afa15801561168c573d6000803e3d6000fd5b505050506040513d601f19601f820116820180604052508101906116b09190612287565b90506116d76116c560a08c0160808d01611eb5565b6001600160a01b038b169083866113d6565b506001016115f4565b505b50505b6116ef81856123a6565b9695505050505050565b6001600160a01b038116156109bc57604051633f8ecfd360e21b81526001600160a01b037f0000000000000000000000000000000000000000000000000000000000000000169063fe3b3f4c90611754908490600401611b27565b6020604051808303816000875af1158015611773573d6000803e3d6000fd5b505050506040513d601f19601f820116820180604052508101906106399190612409565b60006117ec826040518060400160405280602081526020017f5361666545524332303a206c6f772d6c6576656c2063616c6c206661696c6564815250856001600160a01b03166118f69092919063ffffffff16565b805190915015611447578080602001905181019061180a9190612409565b6114475760405162461bcd60e51b815260206004820152602a60248201527f5361666545524332303a204552433230206f7065726174696f6e20646964206e6044820152691bdd081cdd58d8d9595960b21b6064820152608401610b5e565b6040516347720ebb60e01b815260048101839052602481018290526001600160a01b038416906347720ebb90604401602060405180830381865afa1580156118b5573d6000803e3d6000fd5b505050506040513d601f19601f820116820180604052508101906118d99190612409565b611447576040516322d9eef360e21b815260040160405180910390fd5b6060611905848460008561190d565b949350505050565b60608247101561196e5760405162461bcd60e51b815260206004820152602660248201527f416464726573733a20696e73756666696369656e742062616c616e636520666f6044820152651c8818d85b1b60d21b6064820152608401610b5e565b600080866001600160a01b0316858760405161198a9190612426565b60006040518083038185875af1925050503d80600081146119c7576040519150601f19603f3d011682016040523d82523d6000602084013e6119cc565b606091505b50915091506119dd878383876119e8565b979650505050505050565b60608315611a57578251600003611a50576001600160a01b0385163b611a505760405162461bcd60e51b815260206004820152601d60248201527f416464726573733a2063616c6c20746f206e6f6e2d636f6e74726163740000006044820152606401610b5e565b5081611905565b6119058383815115611a6c5781518083602001fd5b8060405162461bcd60e51b8152600401610b5e9190611b07565b600060208284031215611a9857600080fd5b81356001600160e01b031981168114611ab057600080fd5b9392505050565b60005b83811015611ad2578181015183820152602001611aba565b50506000910152565b60008151808452611af3816020860160208601611ab7565b601f01601f19169290920160200192915050565b602081526000611ab06020830184611adb565b6001600160a01b03169052565b6001600160a01b0391909116815260200190565b60008060408385031215611b4e57600080fd5b50508035926020909101359150565b81516001600160a01b031681526020808301516001600160601b031690820152604080830151610120830191611b9590840182611b1a565b506060830151611bb060608401826001600160601b03169052565b506080830151611bc36080840182611b1a565b5060a0830151611bd960a084018261ffff169052565b5060c0830151611bed60c084018215159052565b5060e0830151611c0860e08401826001600160481b03169052565b5061010080840151611c1c82850182611b1a565b505092915050565b634e487b7160e01b600052604160045260246000fd5b61ffff811681146109bc57600080fd5b803561070481611c3a565b600060808284031215611c6757600080fd5b604051608081016001600160401b0381118282101715611c8957611c89611c24565b6040528235611c9781611c3a565b81526020830135611ca781611c3a565b60208201526040830135611cba81611c3a565b60408201526060830135611ccd81611c3a565b60608201529392505050565b600060208284031215611ceb57600080fd5b81356001600160401b0380821115611d0257600080fd5b818401915084601f830112611d1657600080fd5b813581811115611d2857611d28611c24565b604051601f8201601f19908116603f01168101908382118183101715611d5057611d50611c24565b81604052828152876020848701011115611d6957600080fd5b826020860160208301376000928101602001929092525095945050505050565b805161ffff908116835260208083015182169084015260408083015182169084015260609182015116910152565b6080810161038e8284611d89565b600060208284031215611dd757600080fd5b81356001600160401b03811115611ded57600080fd5b82016101208185031215611ab057600080fd5b6001600160a01b03811681146109bc57600080fd5b803561070481611e00565b600080600080600060808688031215611e3857600080fd5b85359450602086013593506040860135611e5181611e00565b925060608601356001600160401b0380821115611e6d57600080fd5b818801915088601f830112611e8157600080fd5b813581811115611e9057600080fd5b896020828501011115611ea257600080fd5b9699959850939650602001949392505050565b600060208284031215611ec757600080fd5b8135611ab081611e00565b60008060408385031215611ee557600080fd5b8235611ef081611e00565b946020939093013593505050565b81516001600160a01b0390811682526020808401516001600160601b0390811691840191909152604080850151831690840152606080850151909116908301526080808401519091169082015260a082810151610100830191611f669084018261ffff169052565b5060c0830151611f7a60c084018215159052565b5060e0830151611f9560e08401826001600160481b03169052565b5092915050565b600181811c90821680611fb057607f821691505b602082108103611fd057634e487b7160e01b600052602260045260246000fd5b50919050565b634e487b7160e01b600052601160045260246000fd5b61ffff818116838216019080821115611f9557611f95611fd6565b60a081016120158285611d89565b8260808301529392505050565b601f82111561144757600081815260208120601f850160051c810160208610156120495750805b601f850160051c820191505b818110156111ff57828155600101612055565b81516001600160401b0381111561208157612081611c24565b6120958161208f8454611f9c565b84612022565b602080601f8311600181146120ca57600084156120b25750858301515b600019600386901b1c1916600185901b1785556111ff565b600085815260208120601f198616915b828110156120f9578886015182559484019460019091019084016120da565b50858210156121175787850151600019600388901b60f8161c191681555b5050505050600190811b01905550565b6000808335601e1984360301811261213e57600080fd5b8301803591506001600160401b0382111561215857600080fd5b6020019150600581901b360382131561217057600080fd5b9250929050565b80356001600160601b038116811461070457600080fd5b80151581146109bc57600080fd5b80356107048161218e565b80356001600160481b038116811461070457600080fd5b60006101008083850312156121d257600080fd5b604051908101906001600160401b03821181831017156121f4576121f4611c24565b816040528335915061220582611e00565b81815261221460208501612177565b602082015261222560408501611e15565b604082015261223660608501611e15565b606082015261224760808501611c4a565b608082015261225860a0850161219c565b60a082015261226960c085016121a7565b60c082015261227a60e08501611e15565b60e0820152949350505050565b60006020828403121561229957600080fd5b8151611ab081611e00565b808202811582820484141761038e5761038e611fd6565b6000826122d857634e487b7160e01b600052601260045260246000fd5b500490565b8082018082111561038e5761038e611fd6565b6000808335601e1984360301811261230757600080fd5b8301803591506001600160401b0382111561232157600080fd5b60200191503681900382131561217057600080fd5b60008060006060848603121561234b57600080fd5b833561235681611e00565b925060208401359150604084013561236d81611e00565b809150509250925092565b60006001600160601b038281166002600160601b0319810161239c5761239c611fd6565b6001019392505050565b8181038181111561038e5761038e611fd6565b600080604083850312156123cc57600080fd5b82516123d781611e00565b60208401519092506123e881611c3a565b809150509250929050565b634e487b7160e01b600052603260045260246000fd5b60006020828403121561241b57600080fd5b8151611ab08161218e565b60008251612438818460208701611ab7565b919091019291505056fea264697066735822122045bf692fe8836df70533c8eb67ad39556137df20d941e8bb8ba84c7ae5c909c164736f6c63430008150033000000000000000000000000a2574d9ddb6a325ad2be838bd854228b8021514800000000000000000000000034a437a91415c36712b0d912c171c74595be437d0000000000000000000000009e81ed8099df82004d298144138c12abb959df1e000000000000000000000000532bba5445e306cb83cf26ef89842d4701330a45",
        "nonce": "0x8f",
        "chainId": "0x13882"
      },
      "additionalContracts": [],
      "isFixedGasLimit": false
    },
    {
      "hash": "0xa852420ed4b5d9195479883f3c6bf7a698fa21386a1788e02f47e786678d80a7",
      "transactionType": "CALL",
      "contractName": null,
      "contractAddress": "0x56174f7ff96c82004d3cec42e9a99b5a44e76c77",
      "function": "upgradeTo(address)",
      "arguments": [
        "0x7E34Ec095a1a8ADA535d90BB3CBaBD8740Fe5A44"
      ],
      "transaction": {
        "from": "0xfbd6b26d7d6faf3e3accc77aa645aeab6c024d23",
        "to": "0x56174f7ff96c82004d3cec42e9a99b5a44e76c77",
        "gas": "0xb278",
        "value": "0x0",
        "input": "0x3659cfe60000000000000000000000007e34ec095a1a8ada535d90bb3cbabd8740fe5a44",
        "nonce": "0x3",
        "chainId": "0x13882"
      },
      "additionalContracts": [],
      "isFixedGasLimit": false
    },
    {
      "hash": "0xa648c7fa9a2f7b7ff91f9fab8fdccef816fdf4cac6096a17b40510112ab2051e",
      "transactionType": "CALL",
      "contractName": null,
      "contractAddress": "0x9e81ed8099df82004d298144138c12abb959df1e",
      "function": "registerErc20Currency(address)",
      "arguments": [
        "0x9F98f838E3db42830ef488a92c8ed9671268000e"
      ],
      "transaction": {
        "from": "0xed4ae5eb2a93658852343385a0b28a2b66a07697",
        "to": "0x9e81ed8099df82004d298144138c12abb959df1e",
        "gas": "0xa851",
        "value": "0x0",
        "input": "0xacc331550000000000000000000000009f98f838e3db42830ef488a92c8ed9671268000e",
        "nonce": "0x90",
        "chainId": "0x13882"
      },
      "additionalContracts": [],
      "isFixedGasLimit": false
    },
    {
      "hash": "0x7ba75688df82fe219e12d73830fcc5006d545ca66b93734a7d407adc95d9e762",
      "transactionType": "CALL",
      "contractName": null,
      "contractAddress": "0x34a437a91415c36712b0d912c171c74595be437d",
      "function": "registerCollectModule(address)",
      "arguments": [
        "0x56174f7ff96C82004D3cEC42e9A99b5A44e76C77"
      ],
      "transaction": {
        "from": "0xed4ae5eb2a93658852343385a0b28a2b66a07697",
        "to": "0x34a437a91415c36712b0d912c171c74595be437d",
        "gas": "0xa8c2",
        "value": "0x0",
        "input": "0x8e8b8c9700000000000000000000000056174f7ff96c82004d3cec42e9a99b5a44e76c77",
        "nonce": "0x91",
        "chainId": "0x13882"
      },
      "additionalContracts": [],
      "isFixedGasLimit": false
    },
    {
      "hash": "0x5b3e1546f738c7edc3085a54bce39ed7b3b2e99f347575daaf98bac8b3983811",
      "transactionType": "CALL",
      "contractName": null,
      "contractAddress": "0x56174f7ff96c82004d3cec42e9a99b5a44e76c77",
      "function": "setMintFeeParams(address,uint256)",
      "arguments": [
        "0x9F98f838E3db42830ef488a92c8ed9671268000e",
        "10000000000000000000"
      ],
      "transaction": {
        "from": "0x532bba5445e306cb83cf26ef89842d4701330a45",
        "to": "0x56174f7ff96c82004d3cec42e9a99b5a44e76c77",
        "gas": "0xcce5",
        "value": "0x0",
        "input": "0xe66214050000000000000000000000009f98f838e3db42830ef488a92c8ed9671268000e0000000000000000000000000000000000000000000000008ac7230489e80000",
        "nonce": "0x3d",
        "chainId": "0x13882"
      },
      "additionalContracts": [],
      "isFixedGasLimit": false
    },
    {
      "hash": "0xe1738c0a1613594d4e6a1aa69b7a6383b24220858cdc721f3307c8931a704f2b",
      "transactionType": "CALL",
      "contractName": null,
      "contractAddress": "0x56174f7ff96c82004d3cec42e9a99b5a44e76c77",
      "function": "setProtocolSharedRevenueDistribution((uint16,uint16,uint16,uint16))",
      "arguments": [
        "(5000, 2000, 1500, 1500)"
      ],
      "transaction": {
        "from": "0x532bba5445e306cb83cf26ef89842d4701330a45",
        "to": "0x56174f7ff96c82004d3cec42e9a99b5a44e76c77",
        "gas": "0xc7c3",
        "value": "0x0",
        "input": "0x6039c395000000000000000000000000000000000000000000000000000000000000138800000000000000000000000000000000000000000000000000000000000007d000000000000000000000000000000000000000000000000000000000000005dc00000000000000000000000000000000000000000000000000000000000005dc",
        "nonce": "0x3e",
        "chainId": "0x13882"
      },
      "additionalContracts": [],
      "isFixedGasLimit": false
    }
  ],
  "receipts": [
    {
      "status": "0x1",
      "cumulativeGasUsed": "0x4b231b",
      "logs": [
        {
          "address": "0x7e34ec095a1a8ada535d90bb3cbabd8740fe5a44",
          "topics": [
            "0x8be0079c531659141344cd1fd0a4f28419497f9722a3daafe3b4186f6b6457e0",
            "0x0000000000000000000000000000000000000000000000000000000000000000",
            "0x000000000000000000000000ed4ae5eb2a93658852343385a0b28a2b66a07697"
          ],
          "data": "0x",
          "blockHash": "0xf968c292936c50ad5c0644400ff07ced80dd031996bc5b918efb0af109c62b70",
          "blockNumber": "0x626800",
          "transactionHash": "0x2aa2dfb5468e5a50446fadc2f5e33a9ac1702ea51b7a7e2e43cd20065371928f",
          "transactionIndex": "0xd",
          "logIndex": "0xe6",
          "removed": false
        },
        {
          "address": "0x7e34ec095a1a8ada535d90bb3cbabd8740fe5a44",
          "topics": [
            "0x8be0079c531659141344cd1fd0a4f28419497f9722a3daafe3b4186f6b6457e0",
            "0x000000000000000000000000ed4ae5eb2a93658852343385a0b28a2b66a07697",
            "0x000000000000000000000000532bba5445e306cb83cf26ef89842d4701330a45"
          ],
          "data": "0x",
          "blockHash": "0xf968c292936c50ad5c0644400ff07ced80dd031996bc5b918efb0af109c62b70",
          "blockNumber": "0x626800",
          "transactionHash": "0x2aa2dfb5468e5a50446fadc2f5e33a9ac1702ea51b7a7e2e43cd20065371928f",
          "transactionIndex": "0xd",
          "logIndex": "0xe7",
          "removed": false
        },
        {
          "address": "0x0000000000000000000000000000000000001010",
          "topics": [
            "0x4dfe1bbbcf077ddc3e01291eea2d5c70c2b422b415d95645b9adcfd678cb1d63",
            "0x0000000000000000000000000000000000000000000000000000000000001010",
            "0x000000000000000000000000ed4ae5eb2a93658852343385a0b28a2b66a07697",
            "0x000000000000000000000000ac75d6efec891724b88b916b36e2ef38bcbec73f"
          ],
          "data": "0x000000000000000000000000000000000000000000000000000eebf8eaf090000000000000000000000000000000000000000000000000005b0835642b0c770f000000000000000000000000000000000000000000000135d557a0010070126b0000000000000000000000000000000000000000000000005af9496b401be70f000000000000000000000000000000000000000000000135d5668bf9eb60a26b",
          "blockHash": "0xf968c292936c50ad5c0644400ff07ced80dd031996bc5b918efb0af109c62b70",
          "blockNumber": "0x626800",
          "transactionHash": "0x2aa2dfb5468e5a50446fadc2f5e33a9ac1702ea51b7a7e2e43cd20065371928f",
          "transactionIndex": "0xd",
          "logIndex": "0xe8",
          "removed": false
        }
      ],
      "logsBloom": "0x00000000000000000000000000000000000000000000000000800000000000000000000000000010000000000000000000008000000000000000000000000000000000000000000000000000000000800001000000000000000100000000000000000000020000000000000000000800000000000000000080000020000000400000000000000000000002000000004000000000000000000000000000000000200008000000400008000000000000000020004000000000000000000000004000000800000000000001000000000000000000000000000000100000000020002000000000000000000000000800000000000000000000000000000000100000",
      "type": "0x2",
      "transactionHash": "0x2aa2dfb5468e5a50446fadc2f5e33a9ac1702ea51b7a7e2e43cd20065371928f",
      "transactionIndex": "0xd",
      "blockHash": "0xf968c292936c50ad5c0644400ff07ced80dd031996bc5b918efb0af109c62b70",
      "blockNumber": "0x626800",
      "gasUsed": "0x200b54",
      "effectiveGasPrice": "0x7735940f",
      "from": "0xed4ae5eb2a93658852343385a0b28a2b66a07697",
      "to": null,
      "contractAddress": "0x7e34ec095a1a8ada535d90bb3cbabd8740fe5a44"
    },
    {
      "status": "0x1",
      "cumulativeGasUsed": "0x451e4",
      "logs": [
        {
          "address": "0x56174f7ff96c82004d3cec42e9a99b5a44e76c77",
          "topics": [
            "0xbc7cd75a20ee27fd9adebab32041f755214dbc6bffa90cc0225b39da2e5c2d3b",
            "0x0000000000000000000000007e34ec095a1a8ada535d90bb3cbabd8740fe5a44"
          ],
          "data": "0x",
          "blockHash": "0x891ad473c76d3d65844002201e317ae48a59bccee85c1a81611cb689e373f793",
          "blockNumber": "0x626804",
          "transactionHash": "0xa852420ed4b5d9195479883f3c6bf7a698fa21386a1788e02f47e786678d80a7",
          "transactionIndex": "0x2",
          "logIndex": "0x3",
          "removed": false
        },
        {
          "address": "0x0000000000000000000000000000000000001010",
          "topics": [
            "0x4dfe1bbbcf077ddc3e01291eea2d5c70c2b422b415d95645b9adcfd678cb1d63",
            "0x0000000000000000000000000000000000000000000000000000000000001010",
            "0x000000000000000000000000fbd6b26d7d6faf3e3accc77aa645aeab6c024d23",
            "0x000000000000000000000000ac75d6efec891724b88b916b36e2ef38bcbec73f"
          ],
          "data": "0x00000000000000000000000000000000000000000000000000003c2b24e138000000000000000000000000000000000000000000000000008ac63b8663334abb000000000000000000000000000000000000000000000135d620a9a39e3d7a790000000000000000000000000000000000000000000000008ac5ff5b3e5212bb000000000000000000000000000000000000000000000135d620e5cec31eb279",
          "blockHash": "0x891ad473c76d3d65844002201e317ae48a59bccee85c1a81611cb689e373f793",
          "blockNumber": "0x626804",
          "transactionHash": "0xa852420ed4b5d9195479883f3c6bf7a698fa21386a1788e02f47e786678d80a7",
          "transactionIndex": "0x2",
          "logIndex": "0x4",
          "removed": false
        }
      ],
      "logsBloom": "0x00000000000000000000000000000000400000000000000000000000000000000000100000000000000000000000000000008000000000000000000000000000000000000000000010000000000002800000000000000000000100000000000000020000000000000000000000000000100000000000000080000000000000000002000000000000000000000000000000000000000000000000000000000000200008000000000000000000000000200020000000000000000000000001004000000020000000000001000200000000000000000000000000100000000000000000000000000000000000000800000000000000400000000000000000100000",
      "type": "0x2",
      "transactionHash": "0xa852420ed4b5d9195479883f3c6bf7a698fa21386a1788e02f47e786678d80a7",
      "transactionIndex": "0x2",
      "blockHash": "0x891ad473c76d3d65844002201e317ae48a59bccee85c1a81611cb689e373f793",
      "blockNumber": "0x626804",
      "gasUsed": "0x8136",
      "effectiveGasPrice": "0x7735940f",
      "from": "0xfbd6b26d7d6faf3e3accc77aa645aeab6c024d23",
      "to": "0x56174f7ff96c82004d3cec42e9a99b5a44e76c77",
      "contractAddress": null
    },
    {
      "status": "0x1",
      "cumulativeGasUsed": "0x14b76",
      "logs": [
        {
          "address": "0x0000000000000000000000000000000000001010",
          "topics": [
            "0x4dfe1bbbcf077ddc3e01291eea2d5c70c2b422b415d95645b9adcfd678cb1d63",
            "0x0000000000000000000000000000000000000000000000000000000000001010",
            "0x000000000000000000000000ed4ae5eb2a93658852343385a0b28a2b66a07697",
            "0x000000000000000000000000ac75d6efec891724b88b916b36e2ef38bcbec73f"
          ],
          "data": "0x000000000000000000000000000000000000000000000000000038bf3c34c4000000000000000000000000000000000000000000000000005af9496b3e3b3d23000000000000000000000000000000000000000000000135d63921e5ef99620a0000000000000000000000000000000000000000000000005af910ac02067923000000000000000000000000000000000000000000000135d6395aa52bce260a",
          "blockHash": "0x6932921e989b39161b635c8a94ef9ab610f8ea931d34e2e854a1921a885380ee",
          "blockNumber": "0x626808",
          "transactionHash": "0xa648c7fa9a2f7b7ff91f9fab8fdccef816fdf4cac6096a17b40510112ab2051e",
          "transactionIndex": "0x1",
          "logIndex": "0x2",
          "removed": false
        }
      ],
      "logsBloom": "0x00000000000000000000000000000000000000000000000000000000000000000000000000000000000000000000000000008000000000000000000000000000000000000000000000000000000000800000000000000000000100000000000000000000000000000000000000000000000000000000000080000000000000000000000000000000000000000000004000000000000000000000000000000000200008000000000008000000000000000020004000000000000000000000004000000000000000000001000000000000000000000000000000100000000000000000000000000000000000000800000000000000000000000000000000100000",
      "type": "0x2",
      "transactionHash": "0xa648c7fa9a2f7b7ff91f9fab8fdccef816fdf4cac6096a17b40510112ab2051e",
      "transactionIndex": "0x1",
      "blockHash": "0x6932921e989b39161b635c8a94ef9ab610f8ea931d34e2e854a1921a885380ee",
      "blockNumber": "0x626808",
      "gasUsed": "0x79dd",
      "effectiveGasPrice": "0x7735940f",
      "from": "0xed4ae5eb2a93658852343385a0b28a2b66a07697",
      "to": "0x9e81ed8099df82004d298144138c12abb959df1e",
      "contractAddress": null
    },
    {
      "status": "0x1",
      "cumulativeGasUsed": "0x7a2f",
      "logs": [
        {
          "address": "0x0000000000000000000000000000000000001010",
          "topics": [
            "0x4dfe1bbbcf077ddc3e01291eea2d5c70c2b422b415d95645b9adcfd678cb1d63",
            "0x0000000000000000000000000000000000000000000000000000000000001010",
            "0x000000000000000000000000ed4ae5eb2a93658852343385a0b28a2b66a07697",
            "0x000000000000000000000000ac75d6efec891724b88b916b36e2ef38bcbec73f"
          ],
          "data": "0x000000000000000000000000000000000000000000000000000038e56b5e2c000000000000000000000000000000000000000000000000005af910ac01ff5530000000000000000000000000000000000000000000000135d63cbe5e4ef6b4640000000000000000000000000000000000000000000000005af8d7c696a12930000000000000000000000000000000000000000000000135d63cf743ba54e064",
          "blockHash": "0x3f482bd7fb7d5cc469a1c2e1567d07a90598f0e8b2fc0d61f07d8be787cb4d16",
          "blockNumber": "0x62680c",
          "transactionHash": "0x7ba75688df82fe219e12d73830fcc5006d545ca66b93734a7d407adc95d9e762",
          "transactionIndex": "0x0",
          "logIndex": "0x0",
          "removed": false
        }
      ],
      "logsBloom": "0x00000000000000000000000000000000000000000000000000000000000000000000000000000000000000000000000000008000000000000000000000000000000000000000000000000000000000800000000000000000000100000000000000000000000000000000000000000000000000000000000080000000000000000000000000000000000000000000004000000000000000000000000000000000200008000000000008000000000000000020004000000000000000000000004000000000000000000001000000000000000000000000000000100000000000000000000000000000000000000800000000000000000000000000000000100000",
      "type": "0x2",
      "transactionHash": "0x7ba75688df82fe219e12d73830fcc5006d545ca66b93734a7d407adc95d9e762",
      "transactionIndex": "0x0",
      "blockHash": "0x3f482bd7fb7d5cc469a1c2e1567d07a90598f0e8b2fc0d61f07d8be787cb4d16",
      "blockNumber": "0x62680c",
      "gasUsed": "0x7a2f",
      "effectiveGasPrice": "0x7735940f",
      "from": "0xed4ae5eb2a93658852343385a0b28a2b66a07697",
      "to": "0x34a437a91415c36712b0d912c171c74595be437d",
      "contractAddress": null
    },
    {
      "status": "0x1",
      "cumulativeGasUsed": "0x17646",
      "logs": [
        {
          "address": "0x56174f7ff96c82004d3cec42e9a99b5a44e76c77",
          "topics": [
            "0x0189ab00278bb0747b4d6f5b2e2b90c9bef3cc7a067b1737f15b4c90ab5a258f"
          ],
          "data": "0x0000000000000000000000009f98f838e3db42830ef488a92c8ed9671268000e0000000000000000000000000000000000000000000000008ac7230489e8000000000000000000000000000000000000000000000000000000000000662fe228",
          "blockHash": "0xf4640e5a32f0bcd5f8dd8cd0de3d7af9bbc12eac863e0f86b840556f9387d2d4",
          "blockNumber": "0x62680f",
          "transactionHash": "0x5b3e1546f738c7edc3085a54bce39ed7b3b2e99f347575daaf98bac8b3983811",
          "transactionIndex": "0x1",
          "logIndex": "0x2",
          "removed": false
        },
        {
          "address": "0x0000000000000000000000000000000000001010",
          "topics": [
            "0x4dfe1bbbcf077ddc3e01291eea2d5c70c2b422b415d95645b9adcfd678cb1d63",
            "0x0000000000000000000000000000000000000000000000000000000000001010",
            "0x000000000000000000000000532bba5445e306cb83cf26ef89842d4701330a45",
            "0x000000000000000000000000ac75d6efec891724b88b916b36e2ef38bcbec73f"
          ],
          "data": "0x00000000000000000000000000000000000000000000000000004513f3fae0000000000000000000000000000000000000000000000000008a8d9324e2e9da8e000000000000000000000000000000000000000000000135d6497a7ffe2721530000000000000000000000000000000000000000000000008a8d4e10eeeefa8e000000000000000000000000000000000000000000000135d649bf93f2220153",
          "blockHash": "0xf4640e5a32f0bcd5f8dd8cd0de3d7af9bbc12eac863e0f86b840556f9387d2d4",
          "blockNumber": "0x62680f",
          "transactionHash": "0x5b3e1546f738c7edc3085a54bce39ed7b3b2e99f347575daaf98bac8b3983811",
          "transactionIndex": "0x1",
          "logIndex": "0x3",
          "removed": false
        }
      ],
      "logsBloom": "0x00000000004000000000000000000000000000000000000000000000000000000000000000000010000000000000000000008000000000000000000000000000000000000000000000002000000000800000000000000000000100000000020000020000000000000000000000000000000000000000000080000000000000000000000000000000000000000000000000000000000000000000000000000000200008000000400000000000000000000020000000000000000000000001004000000000000000000001000200000000000000000000000000100000000000002000000000000000000000000800000000000000000000000000000000100000",
      "type": "0x2",
      "transactionHash": "0x5b3e1546f738c7edc3085a54bce39ed7b3b2e99f347575daaf98bac8b3983811",
      "transactionIndex": "0x1",
      "blockHash": "0xf4640e5a32f0bcd5f8dd8cd0de3d7af9bbc12eac863e0f86b840556f9387d2d4",
      "blockNumber": "0x62680f",
      "gasUsed": "0x9458",
      "effectiveGasPrice": "0x7735940f",
      "from": "0x532bba5445e306cb83cf26ef89842d4701330a45",
      "to": "0x56174f7ff96c82004d3cec42e9a99b5a44e76c77",
      "contractAddress": null
    },
    {
      "status": "0x1",
      "cumulativeGasUsed": "0x90a0",
      "logs": [
        {
          "address": "0x56174f7ff96c82004d3cec42e9a99b5a44e76c77",
          "topics": [
            "0xc563d89fbb43c6d8cdbe70cfdbfb3176375e73c6259bcf495f5182cd275ecba3"
          ],
          "data": "0x000000000000000000000000000000000000000000000000000000000000138800000000000000000000000000000000000000000000000000000000000007d000000000000000000000000000000000000000000000000000000000000005dc00000000000000000000000000000000000000000000000000000000000005dc00000000000000000000000000000000000000000000000000000000662fe230",
          "blockHash": "0xc52981131b62bc88c13ddd005505c8bbe0b58a80fcce08908bf1ab56dfb78f73",
          "blockNumber": "0x626812",
          "transactionHash": "0xe1738c0a1613594d4e6a1aa69b7a6383b24220858cdc721f3307c8931a704f2b",
          "transactionIndex": "0x0",
          "logIndex": "0x0",
          "removed": false
        },
        {
          "address": "0x0000000000000000000000000000000000001010",
          "topics": [
            "0x4dfe1bbbcf077ddc3e01291eea2d5c70c2b422b415d95645b9adcfd678cb1d63",
            "0x0000000000000000000000000000000000000000000000000000000000001010",
            "0x000000000000000000000000532bba5445e306cb83cf26ef89842d4701330a45",
            "0x000000000000000000000000bb583a9dde59ca64aaa14807f37a4c665c0d72c7"
          ],
          "data": "0x00000000000000000000000000000000000000000000000000004358a4bc80000000000000000000000000000000000000000000000000008a8d4e10eee6496600000000000000000000000000000000000000000000004da779e6308e2036dc0000000000000000000000000000000000000000000000008a8d0ab84a29c96600000000000000000000000000000000000000000000004da77a298932dcb6dc",
          "blockHash": "0xc52981131b62bc88c13ddd005505c8bbe0b58a80fcce08908bf1ab56dfb78f73",
          "blockNumber": "0x626812",
          "transactionHash": "0xe1738c0a1613594d4e6a1aa69b7a6383b24220858cdc721f3307c8931a704f2b",
          "transactionIndex": "0x0",
          "logIndex": "0x1",
          "removed": false
        }
      ],
      "logsBloom": "0x00000000000000000000000000000000000000000000000000000000000000000000000000000010002000000000000000008000000000000000000000000000000000000000000000000000000000800000000000000000000100000000000000020000000000000000000000000000000000000000000080000000800000000000000000000000000000000000000000000000000000000008000200000000208000000000400000000000000000000000000000000000000000000001004000000000000000000001000200000000000000000000000000100000000000002000000000000000000000000000000000000000000000000000000100100000",
      "type": "0x2",
      "transactionHash": "0xe1738c0a1613594d4e6a1aa69b7a6383b24220858cdc721f3307c8931a704f2b",
      "transactionIndex": "0x0",
      "blockHash": "0xc52981131b62bc88c13ddd005505c8bbe0b58a80fcce08908bf1ab56dfb78f73",
      "blockNumber": "0x626812",
      "gasUsed": "0x90a0",
      "effectiveGasPrice": "0x7735940f",
      "from": "0x532bba5445e306cb83cf26ef89842d4701330a45",
      "to": "0x56174f7ff96c82004d3cec42e9a99b5a44e76c77",
      "contractAddress": null
    }
  ],
  "libraries": [],
  "pending": [],
  "returns": {},
  "timestamp": 1714414131,
  "chain": 80002,
  "commit": "a69cc60"
}